:1000000080312528080008007E1480314101161C2B
:100010000A280B2813280C1C0E280F2813288D31B2
:10002000DF25803123280B1F162817282328961E2A
:100030001A281B2823288C1E1E281F2823288E31AF
:100040004E26803123287E10090080312728683011
:1000500084000030850008308D31F1258031A030DA
:100060008400003085002A308D31F12580317E10EA
:10007000400184311A2C40013D088039C7003D35CC
:10008000CD00BC1F4428452846284D144D080319AF
:100090004A284B285A284D0A031D4F285028582813
:1000A0000030BD000030BC000030BB000030BA00A2
:1000B000BC1762280030BD000030BC000030BB001F
:1000C0000030BA0041088039C7064135CC00C01F56
:1000D0006A286B286C284C144C0803197028712866
:1000E00080284C0A031D752876287E280030C10020
:1000F0000030C0000030BF000030BE00C0178828AC
:100100000030C1000030C0000030BF000030BE0031
:100110004C0803198C288D2892284D08031D91281E
:1001200092289B280030BD000030BC000030BB008E
:100130000030BA00752A3A08F00040088F31522783
:10014000803171084001D3007008D2005208C2000B
:10015000C301C401C5014508CB004408CA004308D7
:10016000C9004208C8005308C200C301C401C50148
:100170004508D1004408D0004308CF004208CE0013
:100180003B08F0003F088F31522780317108400151
:10019000D3007008D2005208C200C301C401C501D7
:1001A0004208C8074308C93D4408CA3D4508CB3D3D
:1001B0005308C200C301C401C5014208CE07430869
:1001C000CF3D4408D03D4508D13D3C08F0003E08F5
:1001D0008F315227803171084001D3007008D2005E
:1001E0005208C200C301C401C5014208C807430840
:1001F000C93D4408CA3D4508CB3D5308C200C30170
:10020000C401C5014208CE074308CF3D4408D03D94
:100210004508D13D0830C835C90DCA0DCB0D890B35
:100220000B293B08F0003E088F31522780317108BE
:100230004001D3007008D2005208C8075308C93DD6
:100240000030CA3DCB3D3A08F0003F088F315227BD
:10025000803171084001D3007008D2005208C807ED
:100260005308C93D0030CA3DCB3D0830C835C90DE3
:10027000CA0DCB0D890B36293A08F0003E088F31A4
:100280005227803171084001D3007008D200520813
:10029000C8075308C93D0030CA3DCB3D3B08F000BC
:1002A00040088F315227803171084001D300700817
:1002B000D2005208CE075308CF3D0030D03DD13D8B
:1002C0003C08F0003F088F3152278031710840010F
:1002D000D3007008D2005208CE075308CF3D00303B
:1002E000D03DD13D3C08F00040088F31522780318D
:1002F00071084001D3007008D2005208C2005308B0
:10030000C300C401C5010830C235C30DC40DC50DFD
:10031000890B84294208CE074308CF3D4408D03DCD
:100320004508D13D4808C2004908C3004A08C40036
:100330004B08C5001830C536C40CC30CC20C890B61
:100340009B294208CE074308CF3D4408D03D4508CD
:10035000D13D0830C835C90DCA0DCB0D890BAA296E
:100360004D084C07C200C301C30D4208823ED200B3
:10037000FF30433DD300D3290130CE35CF0DD00D12
:10038000D10D890BBD29CB1FC629C729C8294E14F9
:100390000130C835C90DCA0DCB0D890BC929FF30F5
:1003A000D207FF30D33DD01FD629D729BC29CC0195
:1003B000CB1FDB29DC29F829FF304805C200FF30BC
:1003C0004905C300FF304A05C4007F304B05C50016
:1003D00045084404430442040319EF29F029F32992
:1003E0000130CC00F8294E1CF629F729F829F0290C
:1003F0004C080319FC29FD29232A0130CE070030BF
:10040000CF3DD03DD13D511C062A072A232A4E0854
:10041000C2004F08C3005008C4005108C500013095
:10042000C600C537C40CC30CC20CC60B112A450844
:10043000D1004408D0004308CF004208CE0001306C
:10044000D2070030D33D5308803AC20080304202C8
:10045000031D2C2AFF305202031C2F2A302A3A2A6D
:100460007F304001D1008030D0000030CF0000301C
:10047000CE006B2A40015308803AC200803042020D
:10048000031D442A013052020318472A482A532ADE
:1004900000304001D1000030D0000030CF000030EB
:1004A000CE00C7016B2A40015208CD00FF30CE05B7
:1004B000FF30CF057F30D0050030D1054D1C612ABB
:1004C000622A632AD0174D08C2000130C236890B58
:1004D000662A4208D1004708D1045108BD005008DF
:1004E000BC004F08BB004E08BA00080040012708B6
:1004F0008039B1002735B800A61F7F2A802A812ABB
:10050000381438080319852A862A962A380A031DC2
:100510008A2A8B2A932A0030A7000030A6000030D8
:10052000A5000030A400A617A7019E2A0030A7004E
:100530000030A6000030A5000030A4002308803958
:10054000B1062335B900A21FA62AA72AA82A391462
:1005500039080319AC2AAD2ABD2A390A031DB12A6C
:10056000B22ABA2A0030A3000030A2000030A10055
:100570000030A000A217A301C52A0030A30000305C
:10058000A2000030A1000030A000230822042104B2
:100590002004031DCC2ACD2AE42A0030A700003015
:1005A000A6000030A5000030A4008030A6047F30F3
:1005B000A7043108A7042708A3002608A2002508DD
:1005C000A1002408A000192C3808031DE82AE92AF4
:1005D000F22A0030A3000030A2000030A100003059
:1005E000A000192C3808A800A9012908AB00390877
:1005F0002802AA00031CAB032A087F3EB200003089
:100600002B3DB3002708B0002608AF002508AE0038
:100610002408AD000030A7000030A6000030A5007F
:100620000030A4000030B7000030B6000030B50044
:100630000030B400B901582B39080319202B212BA5
:100640003B2B0130AD35AE0DAF0DB00D890B222B1C
:100650000130A435A50DA60DA70D890B292BB71FB9
:10066000322B332B342B24140130B435B50DB60D99
:10067000B70D890B352B23083002031D492B2208A7
:100680002F02031D492B21082E02031D492B200890
:100690002D02031C4C2B4D2B562B37172008AD0277
:1006A0002108AE3B2208AF3B2308B03B0130B9071D
:1006B0001A303902031C5D2B5E2B1C2B30082F04D3
:1006C0002E042D040319652B662B7F2B34147F2BEE
:1006D0000130A435A50DA60DA70D890B692BB71FF9
:1006E000722B732B742B24140130B435B50DB60D59
:1006F000B70D890B752BFF30B207FF30B33DA61F36
:10070000822B832B682BB901B71F872B882BA42B37
:10071000FF303405A800FF303505A900FF3036054D
:10072000AA007F303705AB002B082A0429042804CF
:1007300003199B2B9C2B9F2B0130B900A42B241C4D
:10074000A22BA32BA42B9C2B39080319A82BA92B74
:10075000CF2B0130A4070030A53DA63DA73D271CA7
:10076000B22BB32BCF2B2408A8002508A9002608FC
:10077000AA002708AB000130AC00AB37AA0CA90CCB
:10078000A80CAC0BBD2B2B08A7002A08A600290833
:10079000A5002808A4000130B2070030B33D33089B
:1007A000803AA80080302802031DD82BFF30320287
:1007B000031CDB2BDC2BE92BFF304001B2000030A7
:1007C000B3000030A7000030A6000030A5000030C4
:1007D000A40040013308803AA80080302802031D9D
:1007E000F32B013032020318F62BF72B032C4001B8
:1007F000B201B3010030A7000030A6000030A50010
:100800000030A400B10140013208B800381C092CA6
:100810000A2C0C2CA6170E2C7F30A6053808A80031
:100820000130A836890B112C2808A7003108A7042D
:10083000DB2A08008E31B726843140016F08031986
:10084000222C232CAD2C8E31CD268431740841010D
:10085000C7007308C6008E31E426843140016E352E
:10086000A03E860087017308C03F7408C13F013075
:10087000EE0704306E02031C3E2C3F2CAC2C4101D1
:1008800021084001E300410120084001E20041014C
:1008900021084001E500410120084001E400E60193
:1008A000E70140016635A03E86008701403FDE003B
:1008B000413FDF0063085F02031D602C62085E0297
:1008C0000318632C642C6C2C6635A03E86008701CF
:1008D000403FE200413FE3006635A03E86008701CD
:1008E000403FDE00413FDF005F086502031D7A2CB8
:1008F0005E08640203187D2C7E2C862C6635A03E93
:1009000086008701403FE400413FE5006635A03E98
:10091000860087010030C03FC13F0130E60700304C
:10092000E73D6708803ADE0080305E02031D9A2CA6
:100930000A306602031C9D2C9E2C512C400162083B
:1009400064024101C40040016308653B4101C500E8
:1009500001304001ED00EE01EF016D080319B12CEB
:10096000B22C1F2D41014408F0004508F100F201AE
:10097000F301003085312A25843173084001C1001C
:100980007208C0007108BF007008BE00410146082F
:10099000F0004708F100F201F301003085312A250B
:1009A000843173084001A7007208A6007108A500F1
:1009B0007008A4004530A3008030A2000030A100E0
:1009C0000030A00082317622843140012308BD002E
:1009D0002208BC002108BB002008BA0080313B205F
:1009E000843140013D08D7003C08D6003B08D500C3
:1009F0003A08D40086314B26843140015508E10085
:100A00005408E0006108A1006008A000E830A200DE
:100A10000330A3000030A4001030A5000030A60071
:100A2000A7000830A8000030A9008F317527843155
:100A3000400120088531CE2584314001ED016C084C
:100A4000031D232D242D1D2C87310E2784311D2CB1
:100A500080312528F800780803192F2D302D442DDA
:100A6000F31F332D342D442D7009FA007109FB005A
:100A70007209FC007309FD00FA0A0319FB0A031945
:100A8000FC0A0319FD0A4C2D7308FD007208FC00D6
:100A90007108FB007008FA00730872047104700496
:100AA000031D532D542D5D2D0030F3000030F20056
:100AB0000030F1000030F000CD2D9630F900692DA6
:100AC0000130F9070130FD36FC0CFB0CFA0C890BE8
:100AD000632DFE307D05031D6E2D6F2D602D7F2D46
:100AE0000130F9070130FA070030FB3DFC3DFD3DC8
:100AF0000130FD36FC0CFB0CFA0C890B792DFF3014
:100B00007D05031D842D852D702D8F2D0130F9025B
:100B10000130FA35FB0DFC0DFD0D890B892DFC1BF9
:100B2000922D932D992D023079020318982D992D2D
:100B3000862D79189C2D9D2DA52DFF30FA05FF30AF
:100B4000FB057F30FC05FF30FD050310F90C79082B
:100B5000F400F501F601F7011830F435F50DF60D46
:100B6000F70D890BAD2D7408FA047508FB0476089F
:100B7000FC047708FD0478080319BF2DC02DC52D8E
:100B8000F31FC32DC42DC52DFD177D08F3007C0870
:100B9000F2007B08F1007A08F0000800F20008304B
:100BA00072020318D42DD52D4A2E0130F000720A9E
:100BB000DA2DF035890BD92D7008FF3EF30073084C
:100BC0000139F000F00EF00D400119087006DF3910
:100BD000700699007308F0000130F036890BED2D96
:100BE00070080139F100F10E19087106EF3971062C
:100BF00099007308F0000230F036890BFC2D700864
:100C00000139F100F10DF10DF10D19087106F739F7
:100C1000710699007308F0000330F036890B0D2E31
:100C200070080139F100F10E1B087106EF397106E9
:100C30009B007308F0000430F036890B1C2E7008FE
:100C40000139F100F10CF10C1A0871067F397106B7
:100C50009A007308F0000530F036890B2C2E7008CE
:100C60000139F100F10EF10DF10D1A087106BF39CD
:100C700071069A007308F0000630F036890B3D2E9D
:100C800070080139F100F10EF10D1A087106DF3913
:100C900071069A00080003104001560D570DDD0043
:100CA0005D08031D542E552E5E2E0030D7000030F7
:100CB000D6000030D5000030D400B92E5408D8003A
:100CC0005508D9005608DA005708DB001F30DB361C
:100CD000DA0CD90CD80C890B672E5808DC00D61713
:100CE000FF30D405FF30D505FF30D6050030D705DD
:100CF0009630DD02DD1F7D2E7E2E942E5D08803A1B
:100D0000973E0318842E852E862E552E0130D73619
:100D1000D60CD50CD40C890B872E0130DD07031DB2
:100D2000922E932E862EA92E20305D02031C992E22
:100D30009A2EA42E552E0130D435D50DD60DD70DB3
:100D4000890B9C2E0130DD025D08031DA82EA92E03
:100D50009B2E5C080319AD2EAE2EB92ED409D509F1
:100D6000D609D709D40A0319D50A0319D60A0319D3
:100D7000D70A080040019801990104309A009B01AC
:100D80009C01043092000530930008309400083034
:100D900095000930960006307D018C0006309600E3
:100DA000A0010830AA000130B4008D019701A10113
:100DB000AB01B5018E019801A201AC01B601FF3073
:100DC0008F00FF309900FF30A300FF30AD000730E7
:100DD000B700FF309000FF309A00FF30A400FF30D2
:100DE000AE000F30B80013307C01C20008308D0017
:100DF00013307B019E007D01910192019301CD0191
:100E0000CE01CF019B019C019D01A501A601A70177
:100E1000B901BA01BB0141011616080040011A12BE
:100E200000308531CE258731003087315327873117
:100E30008D31DC2587310B138E3132268731450108
:100E40008C136300000045018C170130F000043062
:100E5000F1008F31CD2787310830F0000430F100E8
:100E60008F31CD2787311030F0000430F1008F3101
:100E7000CD2787318030F0000030F1008F31CD2751
:100E800087310230F0000330F1008F31CD278731F8
:100E90000430F0000530F1008F31CD2787318E31DD
:100EA000B72687310800F200043072020318592F68
:100EB0005A2F902F0130F000720A5F2FF035890B06
:100EC0005E2F7008FF3EF30073080139F000F00C4C
:100ED000F00C40011B0870067F3970069B007308F8
:100EE000F0000130F036890B722F70080139F100E3
:100EF000F10EF10DF10D1B087106BF3971069B0053
:100F00007308F0000230F036890B832F7008013926
:100F1000F100F10EF10D1B087106DF3971069B001F
:100F20000800FA01FB01760877040319982F992F1E
:100F3000C62F0130FC00A32F0130F635F70D890BC9
:100F40009D2F0130FC07F71FA62FA72F9C2F0130E4
:100F5000FA35FB0D890BA82F77087902031DB22FF4
:100F600076087802031CB52FB62FBB2F7608F8023F
:100F70007708F93B7A140130F736F60C890BBC2F51
:100F80000130FC02031DC52FC62FA72F7B08F700D9
:100F90007A08F60008007A01A61341011C109C1083
:100FA00012109210C201C301C001C1017A018C016B
:100FB0008D018E018F01AC01AE01AF01B001B10115
:100FC000B201A7011830A8001030A900AA01AD0194
:100FD000AB019F013A30A000A401A501A101A2012B
:100FE000A3019A0199019E0196019701980192012E
:100FF000930141011C109C1084307A01A600080066
:101BB80043019E13080041010C108E3118268D3107
:101BC800080071084101BF007008BE0008007108D4
:101BD8004101CB007008CA0008006400800101318F
:101BE800890BF22D0034603045018D008F01910181
:101BF8009301920194010800700871040319052EDD
:101C0800062E0B2E71084101BB007008BA000800AF
:101C1800700871040319112E122E172E7108410134
:101C2800B9007008B800080041013E083F040319D4
:101C38001E2E1F2E242E3F088A003E080A008E31D1
:101C4800080041010C100B140230F0000030F100C4
:101C58008D31E5258E31410116140800FF3042010F
:101C68008C00FF308D00FF308E00FF308F00FF307A
:101C78009000FF3091000800773042018C00FF305F
:101C88008D007F308E00FC308F00E63090000730EA
:101C98009100080041014A084B040319542E552E9F
:101CA8005A2E4B088A004A080A008E3141018C12CC
:101CB8000800F20072087A019F00261326142618DD
:101CC800662E672E632E1E08F1001D08F00008001E
:101CD800F93043019D009C0172309F00033041019F
:101CE800CA000030CB008C129616803043019E004B
:101CF8000800803052018C0078308D0086308E00CC
:101D080005308F00910100304001EA000030EB00FF
:101D18004101131008008030520192006B3093008B
:101D28008630940005309500970100304001E800A6
:101D38000030E90041019310080040016C080319C4
:101D4800A62EA82E0130A92E0030EC001A1600305D
:101D58004101B7000030B6000030B5000030B400D3
:101D6800C801C90108008F3117278E318B170B174F
:101D7800A130F0000E30F1008D31E5258E319A301A
:101D8800F0000F30F1008D31EB258E3140011A162D
:101D980008001B308E315D268E317108F600700800
:101DA800F5003A308E315D268E317108F8007008E2
:101DB800F70077087502F3007808763BF40008000E
:101DC80020308E315D268E317108F6007008F500DE
:101DD8003A308E315D268E317108F8007008F700B0
:101DE80077087502F3007808763BF400080048305D
:101DF8004E019200903090002630910019308E00EC
:101E08008F010030F0000030F1008E3100268E3155
:101E18000030F0000030F1008E310C268E31410187
:101E2800BC01BD0108008D31F7258F318631BA26F6
:101E38008F318731CB278F318E316C268F318E31A0
:101E4800FB268F318E317D268F318E318F268F3153
:101E58008E3140268F318E3125268F310800F401CE
:101E6800F501701C382F392F3D2F7208F4077308BD
:101E7800F53D0130F235F30D890B3E2F0130F13677
:101E8800F00C890B432F70087104031D4C2F4D2F44
:101E9800352F7508F1007408F0000800F800F40107
:101EA800F5017008F200F3017208F6007308F700F4
:101EB800781C5F2F602F642F7608F4077708F53DAC
:101EC8000130F635F70D890B652F0310F80C7808EB
:101ED800031D6F2F702F5C2F7508F1007408F00038
:101EE8000800400122082402F6002308253BF700D9
:101EF80022082002F0002308213BF10026082802CE
:101F0800F2002708293BF3008F3133278F317108FE
:101F1800F9007008F800873191278F3140012608B1
:101F28007607A0002708773DA1000800013041018D
:101F3800B4070030B53DB63DB73D013034025130ED
:101F4800353B2530363B0230373B031CAC2FAD2FD9
:101F5800B82F4001EC0100304101B7000030B60055
:101F68000030B5000030B40001304101C80700302E
:101F7800C93D003049020B3003194802031CC52F24
:101F8800C62FCC2F01304001EF004101C801C90123
:101F980008007108F2007008F300EB2F7309420182
:101FA8008C05FF2F730942018D05D52F7309420156
:101FB8008E05D52F730942018F05D52F730942016C
:101FC8009005D52F730942019105D52FFF2F72086F
:101FD800003A0319D22F013A0319D62F033A0319ED
:101FE800DA2F013A0319DE2F073A0319E22F013AD3
:081FF8000319E62FEA2F08008F
:020000040001F9
:0A000E00EC3FFF3F9F3FFF3FFF3F25
:00000001FF
